{
  "_format": "hh-sol-artifact-1",
  "contractName": "MusicRoyalty",
  "sourceName": "contracts/MusicRoyalty.sol",
  "abi": [
    {
      "inputs": [
        {
          "internalType": "string",
          "name": "_name",
          "type": "string"
        },
        {
          "internalType": "string",
          "name": "_symbol",
          "type": "string"
        },
        {
          "internalType": "address",
          "name": "_kycRegistry",
          "type": "address"
        },
        {
          "internalType": "string",
          "name": "_title",
          "type": "string"
        },
        {
          "internalType": "string",
          "name": "_artist",
          "type": "string"
        },
        {
          "internalType": "uint256",
          "name": "_totalRoyaltyValue",
          "type": "uint256"
        },
        {
          "internalType": "uint256",
          "name": "_totalShares",
          "type": "uint256"
        },
        {
          "internalType": "string",
          "name": "_legalDocument",
          "type": "string"
        }
      ],
      "stateMutability": "nonpayable",
      "type": "constructor"
    },
    {
      "anonymous": false,
      "inputs": [
        {
          "indexed": true,
          "internalType": "address",
          "name": "account",
          "type": "address"
        },
        {
          "indexed": false,
          "internalType": "string",
          "name": "reason",
          "type": "string"
        }
      ],
      "name": "AccountFrozen",
      "type": "event"
    },
    {
      "anonymous": false,
      "inputs": [
        {
          "indexed": true,
          "internalType": "address",
          "name": "account",
          "type": "address"
        }
      ],
      "name": "AccountUnfrozen",
      "type": "event"
    },
    {
      "anonymous": false,
      "inputs": [
        {
          "indexed": true,
          "internalType": "address",
          "name": "owner",
          "type": "address"
        },
        {
          "indexed": true,
          "internalType": "address",
          "name": "spender",
          "type": "address"
        },
        {
          "indexed": false,
          "internalType": "uint256",
          "name": "value",
          "type": "uint256"
        }
      ],
      "name": "Approval",
      "type": "event"
    },
    {
      "anonymous": false,
      "inputs": [
        {
          "indexed": false,
          "internalType": "string",
          "name": "title",
          "type": "string"
        },
        {
          "indexed": false,
          "internalType": "uint256",
          "name": "totalRoyaltyValue",
          "type": "uint256"
        }
      ],
      "name": "MusicUpdated",
      "type": "event"
    },
    {
      "anonymous": false,
      "inputs": [
        {
          "indexed": true,
          "internalType": "address",
          "name": "buyer",
          "type": "address"
        },
        {
          "indexed": false,
          "internalType": "uint256",
          "name": "amount",
          "type": "uint256"
        },
        {
          "indexed": false,
          "internalType": "uint256",
          "name": "price",
          "type": "uint256"
        }
      ],
      "name": "SharesPurchased",
      "type": "event"
    },
    {
      "anonymous": false,
      "inputs": [
        {
          "indexed": true,
          "internalType": "address",
          "name": "from",
          "type": "address"
        },
        {
          "indexed": true,
          "internalType": "address",
          "name": "to",
          "type": "address"
        },
        {
          "indexed": false,
          "internalType": "uint256",
          "name": "value",
          "type": "uint256"
        }
      ],
      "name": "Transfer",
      "type": "event"
    },
    {
      "inputs": [],
      "name": "admin",
      "outputs": [
        {
          "internalType": "address",
          "name": "",
          "type": "address"
        }
      ],
      "stateMutability": "view",
      "type": "function"
    },
    {
      "inputs": [
        {
          "internalType": "address",
          "name": "",
          "type": "address"
        },
        {
          "internalType": "address",
          "name": "",
          "type": "address"
        }
      ],
      "name": "allowances",
      "outputs": [
        {
          "internalType": "uint256",
          "name": "",
          "type": "uint256"
        }
      ],
      "stateMutability": "view",
      "type": "function"
    },
    {
      "inputs": [
        {
          "internalType": "address",
          "name": "_spender",
          "type": "address"
        },
        {
          "internalType": "uint256",
          "name": "_value",
          "type": "uint256"
        }
      ],
      "name": "approve",
      "outputs": [
        {
          "internalType": "bool",
          "name": "",
          "type": "bool"
        }
      ],
      "stateMutability": "nonpayable",
      "type": "function"
    },
    {
      "inputs": [
        {
          "internalType": "address",
          "name": "_owner",
          "type": "address"
        }
      ],
      "name": "balanceOf",
      "outputs": [
        {
          "internalType": "uint256",
          "name": "",
          "type": "uint256"
        }
      ],
      "stateMutability": "view",
      "type": "function"
    },
    {
      "inputs": [
        {
          "internalType": "address",
          "name": "",
          "type": "address"
        }
      ],
      "name": "balances",
      "outputs": [
        {
          "internalType": "uint256",
          "name": "",
          "type": "uint256"
        }
      ],
      "stateMutability": "view",
      "type": "function"
    },
    {
      "inputs": [
        {
          "internalType": "uint256",
          "name": "_amount",
          "type": "uint256"
        }
      ],
      "name": "buyShares",
      "outputs": [],
      "stateMutability": "payable",
      "type": "function"
    },
    {
      "inputs": [],
      "name": "decimals",
      "outputs": [
        {
          "internalType": "uint8",
          "name": "",
          "type": "uint8"
        }
      ],
      "stateMutability": "view",
      "type": "function"
    },
    {
      "inputs": [
        {
          "internalType": "address",
          "name": "_from",
          "type": "address"
        },
        {
          "internalType": "address",
          "name": "_to",
          "type": "address"
        },
        {
          "internalType": "uint256",
          "name": "_value",
          "type": "uint256"
        }
      ],
      "name": "forceTransfer",
      "outputs": [],
      "stateMutability": "nonpayable",
      "type": "function"
    },
    {
      "inputs": [
        {
          "internalType": "address",
          "name": "_account",
          "type": "address"
        },
        {
          "internalType": "string",
          "name": "_reason",
          "type": "string"
        }
      ],
      "name": "freezeAccount",
      "outputs": [],
      "stateMutability": "nonpayable",
      "type": "function"
    },
    {
      "inputs": [
        {
          "internalType": "address",
          "name": "",
          "type": "address"
        }
      ],
      "name": "frozen",
      "outputs": [
        {
          "internalType": "bool",
          "name": "",
          "type": "bool"
        }
      ],
      "stateMutability": "view",
      "type": "function"
    },
    {
      "inputs": [],
      "name": "kycRegistry",
      "outputs": [
        {
          "internalType": "address",
          "name": "",
          "type": "address"
        }
      ],
      "stateMutability": "view",
      "type": "function"
    },
    {
      "inputs": [],
      "name": "maxHolding",
      "outputs": [
        {
          "internalType": "uint256",
          "name": "",
          "type": "uint256"
        }
      ],
      "stateMutability": "view",
      "type": "function"
    },
    {
      "inputs": [],
      "name": "music",
      "outputs": [
        {
          "internalType": "string",
          "name": "title",
          "type": "string"
        },
        {
          "internalType": "string",
          "name": "artist",
          "type": "string"
        },
        {
          "internalType": "uint256",
          "name": "totalRoyaltyValue",
          "type": "uint256"
        },
        {
          "internalType": "uint256",
          "name": "totalShares",
          "type": "uint256"
        },
        {
          "internalType": "string",
          "name": "legalDocument",
          "type": "string"
        },
        {
          "internalType": "bool",
          "name": "isActive",
          "type": "bool"
        }
      ],
      "stateMutability": "view",
      "type": "function"
    },
    {
      "inputs": [],
      "name": "name",
      "outputs": [
        {
          "internalType": "string",
          "name": "",
          "type": "string"
        }
      ],
      "stateMutability": "view",
      "type": "function"
    },
    {
      "inputs": [],
      "name": "pricePerShare",
      "outputs": [
        {
          "internalType": "uint256",
          "name": "",
          "type": "uint256"
        }
      ],
      "stateMutability": "view",
      "type": "function"
    },
    {
      "inputs": [
        {
          "internalType": "uint256",
          "name": "totalCost",
          "type": "uint256"
        }
      ],
      "name": "refundExcess",
      "outputs": [],
      "stateMutability": "payable",
      "type": "function"
    },
    {
      "inputs": [
        {
          "internalType": "address",
          "name": "_newAdmin",
          "type": "address"
        }
      ],
      "name": "setAdmin",
      "outputs": [],
      "stateMutability": "nonpayable",
      "type": "function"
    },
    {
      "inputs": [
        {
          "internalType": "address",
          "name": "_kyc",
          "type": "address"
        }
      ],
      "name": "setKYCRegistry",
      "outputs": [],
      "stateMutability": "nonpayable",
      "type": "function"
    },
    {
      "inputs": [
        {
          "internalType": "string",
          "name": "_ipfsHash",
          "type": "string"
        }
      ],
      "name": "setLegalDocument",
      "outputs": [],
      "stateMutability": "nonpayable",
      "type": "function"
    },
    {
      "inputs": [
        {
          "internalType": "uint256",
          "name": "_price",
          "type": "uint256"
        }
      ],
      "name": "setPricePerShare",
      "outputs": [],
      "stateMutability": "nonpayable",
      "type": "function"
    },
    {
      "inputs": [],
      "name": "symbol",
      "outputs": [
        {
          "internalType": "string",
          "name": "",
          "type": "string"
        }
      ],
      "stateMutability": "view",
      "type": "function"
    },
    {
      "inputs": [],
      "name": "totalSupply",
      "outputs": [
        {
          "internalType": "uint256",
          "name": "",
          "type": "uint256"
        }
      ],
      "stateMutability": "view",
      "type": "function"
    },
    {
      "inputs": [
        {
          "internalType": "address",
          "name": "_to",
          "type": "address"
        },
        {
          "internalType": "uint256",
          "name": "_value",
          "type": "uint256"
        }
      ],
      "name": "transfer",
      "outputs": [
        {
          "internalType": "bool",
          "name": "",
          "type": "bool"
        }
      ],
      "stateMutability": "nonpayable",
      "type": "function"
    },
    {
      "inputs": [
        {
          "internalType": "address",
          "name": "_from",
          "type": "address"
        },
        {
          "internalType": "address",
          "name": "_to",
          "type": "address"
        },
        {
          "internalType": "uint256",
          "name": "_value",
          "type": "uint256"
        }
      ],
      "name": "transferFrom",
      "outputs": [
        {
          "internalType": "bool",
          "name": "",
          "type": "bool"
        }
      ],
      "stateMutability": "nonpayable",
      "type": "function"
    },
    {
      "inputs": [
        {
          "internalType": "address",
          "name": "_account",
          "type": "address"
        }
      ],
      "name": "unfreezeAccount",
      "outputs": [],
      "stateMutability": "nonpayable",
      "type": "function"
    }
  ],
  "bytecode": "0x6080604052683635c9adc5dea00000600e553480156200001e57600080fd5b50604051620039613803806200396183398181016040528101906200004491906200048f565b85600a60006101000a81548173ffffffffffffffffffffffffffffffffffffffff021916908373ffffffffffffffffffffffffffffffffffffffff160217905550876000908162000096919062000834565b508660019081620000a8919062000834565b5033600960006101000a81548173ffffffffffffffffffffffffffffffffffffffff021916908373ffffffffffffffffffffffffffffffffffffffff1602179055506040518060c00160405280868152602001858152602001848152602001838152602001828152602001600115158152506003600082015181600001908162000133919062000834565b5060208201518160010190816200014b919062000834565b506040820151816002015560608201518160030155608082015181600401908162000177919062000834565b5060a08201518160050160006101000a81548160ff0219169083151502179055509050508160028190555081600c60003373ffffffffffffffffffffffffffffffffffffffff1673ffffffffffffffffffffffffffffffffffffffff168152602001908152602001600020819055503373ffffffffffffffffffffffffffffffffffffffff16600073ffffffffffffffffffffffffffffffffffffffff167fddf252ad1be2c89b69c2b068fc378daa952ba7f163c4a11628f55a4df523b3ef846040516200024691906200092c565b60405180910390a3505050505050505062000949565b6000604051905090565b600080fd5b600080fd5b600080fd5b600080fd5b6000601f19601f8301169050919050565b7f4e487b7100000000000000000000000000000000000000000000000000000000600052604160045260246000fd5b620002c5826200027a565b810181811067ffffffffffffffff82111715620002e757620002e66200028b565b5b80604052505050565b6000620002fc6200025c565b90506200030a8282620002ba565b919050565b600067ffffffffffffffff8211156200032d576200032c6200028b565b5b62000338826200027a565b9050602081019050919050565b60005b838110156200036557808201518184015260208101905062000348565b60008484015250505050565b60006200038862000382846200030f565b620002f0565b905082815260208101848484011115620003a757620003a662000275565b5b620003b484828562000345565b509392505050565b600082601f830112620003d457620003d362000270565b5b8151620003e684826020860162000371565b91505092915050565b600073ffffffffffffffffffffffffffffffffffffffff82169050919050565b60006200041c82620003ef565b9050919050565b6200042e816200040f565b81146200043a57600080fd5b50565b6000815190506200044e8162000423565b92915050565b6000819050919050565b620004698162000454565b81146200047557600080fd5b50565b60008151905062000489816200045e565b92915050565b600080600080600080600080610100898b031215620004b357620004b262000266565b5b600089015167ffffffffffffffff811115620004d457620004d36200026b565b5b620004e28b828c01620003bc565b985050602089015167ffffffffffffffff8111156200050657620005056200026b565b5b620005148b828c01620003bc565b9750506040620005278b828c016200043d565b965050606089015167ffffffffffffffff8111156200054b576200054a6200026b565b5b620005598b828c01620003bc565b955050608089015167ffffffffffffffff8111156200057d576200057c6200026b565b5b6200058b8b828c01620003bc565b94505060a06200059e8b828c0162000478565b93505060c0620005b18b828c0162000478565b92505060e089015167ffffffffffffffff811115620005d557620005d46200026b565b5b620005e38b828c01620003bc565b9150509295985092959890939650565b600081519050919050565b7f4e487b7100000000000000000000000000000000000000000000000000000000600052602260045260246000fd5b600060028204905060018216806200064657607f821691505b6020821081036200065c576200065b620005fe565b5b50919050565b60008190508160005260206000209050919050565b60006020601f8301049050919050565b600082821b905092915050565b600060088302620006c67fffffffffffffffffffffffffffffffffffffffffffffffffffffffffffffffff8262000687565b620006d2868362000687565b95508019841693508086168417925050509392505050565b6000819050919050565b6000620007156200070f620007098462000454565b620006ea565b62000454565b9050919050565b6000819050919050565b6200073183620006f4565b6200074962000740826200071c565b84845462000694565b825550505050565b600090565b6200076062000751565b6200076d81848462000726565b505050565b5b8181101562000795576200078960008262000756565b60018101905062000773565b5050565b601f821115620007e457620007ae8162000662565b620007b98462000677565b81016020851015620007c9578190505b620007e1620007d88562000677565b83018262000772565b50505b505050565b600082821c905092915050565b60006200080960001984600802620007e9565b1980831691505092915050565b6000620008248383620007f6565b9150826002028217905092915050565b6200083f82620005f3565b67ffffffffffffffff8111156200085b576200085a6200028b565b5b6200086782546200062d565b6200087482828562000799565b600060209050601f831160018114620008ac576000841562000897578287015190505b620008a3858262000816565b86555062000913565b601f198416620008bc8662000662565b60005b82811015620008e657848901518255600182019150602085019450602081019050620008bf565b8683101562000906578489015162000902601f891682620007f6565b8355505b6001600288020188555050505b505050505050565b620009268162000454565b82525050565b60006020820190506200094360008301846200091b565b92915050565b61300880620009596000396000f3fe6080604052600436106101665760003560e01c8063600d2dbc116100d157806399530b061161008a578063d051665011610064578063d051665014610548578063d1a93d1814610585578063d9cb8606146105a1578063f851a440146105ca57610166565b806399530b06146104b7578063a9059cbb146104e2578063bec85e031461051f57610166565b8063600d2dbc146103a45780636fe82c52146103cd578063704b6c02146103fd57806370a0823114610426578063788649ea1461046357806395d89b411461048c57610166565b806327e235e31161012357806327e235e314610280578063313ce567146102bd578063333e6f06146102e857806333bebb77146103135780634b155b971461033c57806355b6ed5c1461036757610166565b806306fdde031461016b57806308bb313514610196578063095ea7b3146101b2578063118c9a07146101ef57806318160ddd1461021857806323b872dd14610243575b600080fd5b34801561017757600080fd5b506101806105f5565b60405161018d919061212e565b60405180910390f35b6101b060048036038101906101ab9190612190565b610683565b005b3480156101be57600080fd5b506101d960048036038101906101d4919061221b565b610791565b6040516101e69190612276565b60405180910390f35b3480156101fb57600080fd5b5061021660048036038101906102119190612190565b610883565b005b34801561022457600080fd5b5061022d61091d565b60405161023a91906122a0565b60405180910390f35b34801561024f57600080fd5b5061026a600480360381019061026591906122bb565b610923565b6040516102779190612276565b60405180910390f35b34801561028c57600080fd5b506102a760048036038101906102a2919061230e565b610dc7565b6040516102b491906122a0565b60405180910390f35b3480156102c957600080fd5b506102d2610ddf565b6040516102df9190612357565b60405180910390f35b3480156102f457600080fd5b506102fd610de4565b60405161030a91906122a0565b60405180910390f35b34801561031f57600080fd5b5061033a600480360381019061033591906122bb565b610dea565b005b34801561034857600080fd5b50610351610f90565b60405161035e9190612381565b60405180910390f35b34801561037357600080fd5b5061038e6004803603810190610389919061239c565b610fb6565b60405161039b91906122a0565b60405180910390f35b3480156103b057600080fd5b506103cb60048036038101906103c6919061230e565b610fdb565b005b3480156103d957600080fd5b506103e26110af565b6040516103f4969594939291906123dc565b60405180910390f35b34801561040957600080fd5b50610424600480360381019061041f919061230e565b61127e565b005b34801561043257600080fd5b5061044d6004803603810190610448919061230e565b611352565b60405161045a91906122a0565b60405180910390f35b34801561046f57600080fd5b5061048a6004803603810190610485919061230e565b61139b565b005b34801561049857600080fd5b506104a16114c9565b6040516104ae919061212e565b60405180910390f35b3480156104c357600080fd5b506104cc611557565b6040516104d991906122a0565b60405180910390f35b3480156104ee57600080fd5b506105096004803603810190610504919061221b565b61155d565b6040516105169190612276565b60405180910390f35b34801561052b57600080fd5b50610546600480360381019061054191906124b7565b61193d565b005b34801561055457600080fd5b5061056f600480360381019061056a919061230e565b6119e6565b60405161057c9190612276565b60405180910390f35b61059f600480360381019061059a9190612190565b611a06565b005b3480156105ad57600080fd5b506105c860048036038101906105c39190612504565b611d91565b005b3480156105d657600080fd5b506105df611ece565b6040516105ec9190612381565b60405180910390f35b6000805461060290612593565b80601f016020809104026020016040519081016040528092919081815260200182805461062e90612593565b801561067b5780601f106106505761010080835404028352916020019161067b565b820191906000526020600020905b81548152906001019060200180831161065e57829003601f168201915b505050505081565b803410156106c6576040517f08c379a00000000000000000000000000000000000000000000000000000000081526004016106bd90612610565b60405180910390fd5b600081346106d4919061265f565b9050600081111561078d5760003373ffffffffffffffffffffffffffffffffffffffff1682604051610705906126c4565b60006040518083038185875af1925050503d8060008114610742576040519150601f19603f3d011682016040523d82523d6000602084013e610747565b606091505b505090508061078b576040517f08c379a000000000000000000000000000000000000000000000000000000000815260040161078290612725565b60405180910390fd5b505b5050565b600081600d60003373ffffffffffffffffffffffffffffffffffffffff1673ffffffffffffffffffffffffffffffffffffffff16815260200190815260200160002060008573ffffffffffffffffffffffffffffffffffffffff1673ffffffffffffffffffffffffffffffffffffffff168152602001908152602001600020819055508273ffffffffffffffffffffffffffffffffffffffff163373ffffffffffffffffffffffffffffffffffffffff167f8c5be1e5ebec7d5bd14f71427d1e84f3dd0314c0f7b2291e5b200ac8c7c3b9258460405161087191906122a0565b60405180910390a36001905092915050565b600960009054906101000a900473ffffffffffffffffffffffffffffffffffffffff1673ffffffffffffffffffffffffffffffffffffffff163373ffffffffffffffffffffffffffffffffffffffff1614610913576040517f08c379a000000000000000000000000000000000000000000000000000000000815260040161090a90612791565b60405180910390fd5b80600f8190555050565b60025481565b600083600b60008273ffffffffffffffffffffffffffffffffffffffff1673ffffffffffffffffffffffffffffffffffffffff16815260200190815260200160002060009054906101000a900460ff16156109b3576040517f08c379a00000000000000000000000000000000000000000000000000000000081526004016109aa906127fd565b60405180910390fd5b83600b60008273ffffffffffffffffffffffffffffffffffffffff1673ffffffffffffffffffffffffffffffffffffffff16815260200190815260200160002060009054906101000a900460ff1615610a41576040517f08c379a0000000000000000000000000000000000000000000000000000000008152600401610a38906127fd565b60405180910390fd5b85610a4b81611ef4565b610a8a576040517f08c379a0000000000000000000000000000000000000000000000000000000008152600401610a8190612869565b60405180910390fd5b85610a9481611ef4565b610ad3576040517f08c379a0000000000000000000000000000000000000000000000000000000008152600401610aca90612869565b60405180910390fd5b85600c60008a73ffffffffffffffffffffffffffffffffffffffff1673ffffffffffffffffffffffffffffffffffffffff168152602001908152602001600020541015610b55576040517f08c379a0000000000000000000000000000000000000000000000000000000008152600401610b4c906128d5565b60405180910390fd5b85600d60008a73ffffffffffffffffffffffffffffffffffffffff1673ffffffffffffffffffffffffffffffffffffffff16815260200190815260200160002060003373ffffffffffffffffffffffffffffffffffffffff1673ffffffffffffffffffffffffffffffffffffffff168152602001908152602001600020541015610c14576040517f08c379a0000000000000000000000000000000000000000000000000000000008152600401610c0b90612941565b60405180910390fd5b85600c60008a73ffffffffffffffffffffffffffffffffffffffff1673ffffffffffffffffffffffffffffffffffffffff1681526020019081526020016000206000828254610c63919061265f565b9250508190555085600c60008973ffffffffffffffffffffffffffffffffffffffff1673ffffffffffffffffffffffffffffffffffffffff1681526020019081526020016000206000828254610cb99190612961565b9250508190555085600d60008a73ffffffffffffffffffffffffffffffffffffffff1673ffffffffffffffffffffffffffffffffffffffff16815260200190815260200160002060003373ffffffffffffffffffffffffffffffffffffffff1673ffffffffffffffffffffffffffffffffffffffff1681526020019081526020016000206000828254610d4c919061265f565b925050819055508673ffffffffffffffffffffffffffffffffffffffff168873ffffffffffffffffffffffffffffffffffffffff167fddf252ad1be2c89b69c2b068fc378daa952ba7f163c4a11628f55a4df523b3ef88604051610db091906122a0565b60405180910390a360019450505050509392505050565b600c6020528060005260406000206000915090505481565b601281565b600e5481565b600960009054906101000a900473ffffffffffffffffffffffffffffffffffffffff1673ffffffffffffffffffffffffffffffffffffffff163373ffffffffffffffffffffffffffffffffffffffff1614610e7a576040517f08c379a0000000000000000000000000000000000000000000000000000000008152600401610e7190612791565b60405180910390fd5b80600c60008573ffffffffffffffffffffffffffffffffffffffff1673ffffffffffffffffffffffffffffffffffffffff1681526020019081526020016000206000828254610ec9919061265f565b9250508190555080600c60008473ffffffffffffffffffffffffffffffffffffffff1673ffffffffffffffffffffffffffffffffffffffff1681526020019081526020016000206000828254610f1f9190612961565b925050819055508173ffffffffffffffffffffffffffffffffffffffff168373ffffffffffffffffffffffffffffffffffffffff167fddf252ad1be2c89b69c2b068fc378daa952ba7f163c4a11628f55a4df523b3ef83604051610f8391906122a0565b60405180910390a3505050565b600a60009054906101000a900473ffffffffffffffffffffffffffffffffffffffff1681565b600d602052816000526040600020602052806000526040600020600091509150505481565b600960009054906101000a900473ffffffffffffffffffffffffffffffffffffffff1673ffffffffffffffffffffffffffffffffffffffff163373ffffffffffffffffffffffffffffffffffffffff161461106b576040517f08c379a000000000000000000000000000000000000000000000000000000000815260040161106290612791565b60405180910390fd5b80600a60006101000a81548173ffffffffffffffffffffffffffffffffffffffff021916908373ffffffffffffffffffffffffffffffffffffffff16021790555050565b60038060000180546110c090612593565b80601f01602080910402602001604051908101604052809291908181526020018280546110ec90612593565b80156111395780601f1061110e57610100808354040283529160200191611139565b820191906000526020600020905b81548152906001019060200180831161111c57829003601f168201915b50505050509080600101805461114e90612593565b80601f016020809104026020016040519081016040528092919081815260200182805461117a90612593565b80156111c75780601f1061119c576101008083540402835291602001916111c7565b820191906000526020600020905b8154815290600101906020018083116111aa57829003601f168201915b5050505050908060020154908060030154908060040180546111e890612593565b80601f016020809104026020016040519081016040528092919081815260200182805461121490612593565b80156112615780601f1061123657610100808354040283529160200191611261565b820191906000526020600020905b81548152906001019060200180831161124457829003601f168201915b5050505050908060050160009054906101000a900460ff16905086565b600960009054906101000a900473ffffffffffffffffffffffffffffffffffffffff1673ffffffffffffffffffffffffffffffffffffffff163373ffffffffffffffffffffffffffffffffffffffff161461130e576040517f08c379a000000000000000000000000000000000000000000000000000000000815260040161130590612791565b60405180910390fd5b80600960006101000a81548173ffffffffffffffffffffffffffffffffffffffff021916908373ffffffffffffffffffffffffffffffffffffffff16021790555050565b6000600c60008373ffffffffffffffffffffffffffffffffffffffff1673ffffffffffffffffffffffffffffffffffffffff168152602001908152602001600020549050919050565b600960009054906101000a900473ffffffffffffffffffffffffffffffffffffffff1673ffffffffffffffffffffffffffffffffffffffff163373ffffffffffffffffffffffffffffffffffffffff161461142b576040517f08c379a000000000000000000000000000000000000000000000000000000000815260040161142290612791565b60405180910390fd5b6000600b60008373ffffffffffffffffffffffffffffffffffffffff1673ffffffffffffffffffffffffffffffffffffffff16815260200190815260200160002060006101000a81548160ff0219169083151502179055508073ffffffffffffffffffffffffffffffffffffffff167ff915cd9fe234de6e8d3afe7bf2388d35b2b6d48e8c629a24602019bde79c213a60405160405180910390a250565b600180546114d690612593565b80601f016020809104026020016040519081016040528092919081815260200182805461150290612593565b801561154f5780601f106115245761010080835404028352916020019161154f565b820191906000526020600020905b81548152906001019060200180831161153257829003601f168201915b505050505081565b600f5481565b600033600b60008273ffffffffffffffffffffffffffffffffffffffff1673ffffffffffffffffffffffffffffffffffffffff16815260200190815260200160002060009054906101000a900460ff16156115ed576040517f08c379a00000000000000000000000000000000000000000000000000000000081526004016115e4906127fd565b60405180910390fd5b83600b60008273ffffffffffffffffffffffffffffffffffffffff1673ffffffffffffffffffffffffffffffffffffffff16815260200190815260200160002060009054906101000a900460ff161561167b576040517f08c379a0000000000000000000000000000000000000000000000000000000008152600401611672906127fd565b60405180910390fd5b3361168581611ef4565b6116c4576040517f08c379a00000000000000000000000000000000000000000000000000000000081526004016116bb90612869565b60405180910390fd5b856116ce81611ef4565b61170d576040517f08c379a000000000000000000000000000000000000000000000000000000000815260040161170490612869565b60405180910390fd5b85600c60003373ffffffffffffffffffffffffffffffffffffffff1673ffffffffffffffffffffffffffffffffffffffff16815260200190815260200160002054101561178f576040517f08c379a0000000000000000000000000000000000000000000000000000000008152600401611786906128d5565b60405180910390fd5b600e5486600c60008a73ffffffffffffffffffffffffffffffffffffffff1673ffffffffffffffffffffffffffffffffffffffff168152602001908152602001600020546117dd9190612961565b111561181e576040517f08c379a0000000000000000000000000000000000000000000000000000000008152600401611815906129e1565b60405180910390fd5b85600c60003373ffffffffffffffffffffffffffffffffffffffff1673ffffffffffffffffffffffffffffffffffffffff168152602001908152602001600020600082825461186d919061265f565b9250508190555085600c60008973ffffffffffffffffffffffffffffffffffffffff1673ffffffffffffffffffffffffffffffffffffffff16815260200190815260200160002060008282546118c39190612961565b925050819055508673ffffffffffffffffffffffffffffffffffffffff163373ffffffffffffffffffffffffffffffffffffffff167fddf252ad1be2c89b69c2b068fc378daa952ba7f163c4a11628f55a4df523b3ef8860405161192791906122a0565b60405180910390a3600194505050505092915050565b600960009054906101000a900473ffffffffffffffffffffffffffffffffffffffff1673ffffffffffffffffffffffffffffffffffffffff163373ffffffffffffffffffffffffffffffffffffffff16146119cd576040517f08c379a00000000000000000000000000000000000000000000000000000000081526004016119c490612791565b60405180910390fd5b8181600360040191826119e1929190612be7565b505050565b600b6020528060005260406000206000915054906101000a900460ff1681565b33600b60008273ffffffffffffffffffffffffffffffffffffffff1673ffffffffffffffffffffffffffffffffffffffff16815260200190815260200160002060009054906101000a900460ff1615611a94576040517f08c379a0000000000000000000000000000000000000000000000000000000008152600401611a8b906127fd565b60405180910390fd5b6000600f5411611ad9576040517f08c379a0000000000000000000000000000000000000000000000000000000008152600401611ad090612d03565b60405180910390fd5b6000670de0b6b3a7640000600f5484611af29190612d23565b611afc9190612d94565b905080341015611b41576040517f08c379a0000000000000000000000000000000000000000000000000000000008152600401611b3890612e11565b60405180910390fd5b82600c6000600960009054906101000a900473ffffffffffffffffffffffffffffffffffffffff1673ffffffffffffffffffffffffffffffffffffffff1673ffffffffffffffffffffffffffffffffffffffff168152602001908152602001600020541015611be5576040517f08c379a0000000000000000000000000000000000000000000000000000000008152600401611bdc90612e7d565b60405180910390fd5b82600c6000600960009054906101000a900473ffffffffffffffffffffffffffffffffffffffff1673ffffffffffffffffffffffffffffffffffffffff1673ffffffffffffffffffffffffffffffffffffffff1681526020019081526020016000206000828254611c56919061265f565b9250508190555082600c60003373ffffffffffffffffffffffffffffffffffffffff1673ffffffffffffffffffffffffffffffffffffffff1681526020019081526020016000206000828254611cac9190612961565b925050819055503373ffffffffffffffffffffffffffffffffffffffff167f630b54f21d1c5ae41c4633ad96e8c15ce15665365eded6a38476ffa71c8ace6c84600f54604051611cfd929190612e9d565b60405180910390a23373ffffffffffffffffffffffffffffffffffffffff16600960009054906101000a900473ffffffffffffffffffffffffffffffffffffffff1673ffffffffffffffffffffffffffffffffffffffff167fddf252ad1be2c89b69c2b068fc378daa952ba7f163c4a11628f55a4df523b3ef85604051611d8491906122a0565b60405180910390a3505050565b600960009054906101000a900473ffffffffffffffffffffffffffffffffffffffff1673ffffffffffffffffffffffffffffffffffffffff163373ffffffffffffffffffffffffffffffffffffffff1614611e21576040517f08c379a0000000000000000000000000000000000000000000000000000000008152600401611e1890612791565b60405180910390fd5b6001600b60008573ffffffffffffffffffffffffffffffffffffffff1673ffffffffffffffffffffffffffffffffffffffff16815260200190815260200160002060006101000a81548160ff0219169083151502179055508273ffffffffffffffffffffffffffffffffffffffff167fc71267b66b2c8820cf488bba23c122cee8408eb55e75428bab72cce8d259e6b98383604051611ec1929190612f02565b60405180910390a2505050565b600960009054906101000a900473ffffffffffffffffffffffffffffffffffffffff1681565b6000600960009054906101000a900473ffffffffffffffffffffffffffffffffffffffff1673ffffffffffffffffffffffffffffffffffffffff168273ffffffffffffffffffffffffffffffffffffffff1603611f545760019050612099565b600080600a60009054906101000a900473ffffffffffffffffffffffffffffffffffffffff1673ffffffffffffffffffffffffffffffffffffffff1684604051602401611fa19190612381565b6040516020818303038152906040527fb9209e33000000000000000000000000000000000000000000000000000000007bffffffffffffffffffffffffffffffffffffffffffffffffffffffff19166020820180517bffffffffffffffffffffffffffffffffffffffffffffffffffffffff838183161783525050505060405161202b9190612f62565b600060405180830381855afa9150503d8060008114612066576040519150601f19603f3d011682016040523d82523d6000602084013e61206b565b606091505b50915091508161208057600092505050612099565b808060200190518101906120949190612fa5565b925050505b919050565b600081519050919050565b600082825260208201905092915050565b60005b838110156120d85780820151818401526020810190506120bd565b60008484015250505050565b6000601f19601f8301169050919050565b60006121008261209e565b61210a81856120a9565b935061211a8185602086016120ba565b612123816120e4565b840191505092915050565b6000602082019050818103600083015261214881846120f5565b905092915050565b600080fd5b600080fd5b6000819050919050565b61216d8161215a565b811461217857600080fd5b50565b60008135905061218a81612164565b92915050565b6000602082840312156121a6576121a5612150565b5b60006121b48482850161217b565b91505092915050565b600073ffffffffffffffffffffffffffffffffffffffff82169050919050565b60006121e8826121bd565b9050919050565b6121f8816121dd565b811461220357600080fd5b50565b600081359050612215816121ef565b92915050565b6000806040838503121561223257612231612150565b5b600061224085828601612206565b92505060206122518582860161217b565b9150509250929050565b60008115159050919050565b6122708161225b565b82525050565b600060208201905061228b6000830184612267565b92915050565b61229a8161215a565b82525050565b60006020820190506122b56000830184612291565b92915050565b6000806000606084860312156122d4576122d3612150565b5b60006122e286828701612206565b93505060206122f386828701612206565b92505060406123048682870161217b565b9150509250925092565b60006020828403121561232457612323612150565b5b600061233284828501612206565b91505092915050565b600060ff82169050919050565b6123518161233b565b82525050565b600060208201905061236c6000830184612348565b92915050565b61237b816121dd565b82525050565b60006020820190506123966000830184612372565b92915050565b600080604083850312156123b3576123b2612150565b5b60006123c185828601612206565b92505060206123d285828601612206565b9150509250929050565b600060c08201905081810360008301526123f681896120f5565b9050818103602083015261240a81886120f5565b90506124196040830187612291565b6124266060830186612291565b818103608083015261243881856120f5565b905061244760a0830184612267565b979650505050505050565b600080fd5b600080fd5b600080fd5b60008083601f84011261247757612476612452565b5b8235905067ffffffffffffffff81111561249457612493612457565b5b6020830191508360018202830111156124b0576124af61245c565b5b9250929050565b600080602083850312156124ce576124cd612150565b5b600083013567ffffffffffffffff8111156124ec576124eb612155565b5b6124f885828601612461565b92509250509250929050565b60008060006040848603121561251d5761251c612150565b5b600061252b86828701612206565b935050602084013567ffffffffffffffff81111561254c5761254b612155565b5b61255886828701612461565b92509250509250925092565b7f4e487b7100000000000000000000000000000000000000000000000000000000600052602260045260246000fd5b600060028204905060018216806125ab57607f821691505b6020821081036125be576125bd612564565b5b50919050565b7f496e73756666696369656e74204554482073656e740000000000000000000000600082015250565b60006125fa6015836120a9565b9150612605826125c4565b602082019050919050565b60006020820190508181036000830152612629816125ed565b9050919050565b7f4e487b7100000000000000000000000000000000000000000000000000000000600052601160045260246000fd5b600061266a8261215a565b91506126758361215a565b925082820390508181111561268d5761268c612630565b5b92915050565b600081905092915050565b50565b60006126ae600083612693565b91506126b98261269e565b600082019050919050565b60006126cf826126a1565b9150819050919050565b7f526566756e64206661696c656400000000000000000000000000000000000000600082015250565b600061270f600d836120a9565b915061271a826126d9565b602082019050919050565b6000602082019050818103600083015261273e81612702565b9050919050565b7f4f6e6c792061646d696e00000000000000000000000000000000000000000000600082015250565b600061277b600a836120a9565b915061278682612745565b602082019050919050565b600060208201905081810360008301526127aa8161276e565b9050919050565b7f4163636f756e742069732066726f7a656e000000000000000000000000000000600082015250565b60006127e76011836120a9565b91506127f2826127b1565b602082019050919050565b60006020820190508181036000830152612816816127da565b9050919050565b7f4e6f74204b594320766572696669656400000000000000000000000000000000600082015250565b60006128536010836120a9565b915061285e8261281d565b602082019050919050565b6000602082019050818103600083015261288281612846565b9050919050565b7f496e73756666696369656e742062616c616e6365000000000000000000000000600082015250565b60006128bf6014836120a9565b91506128ca82612889565b602082019050919050565b600060208201905081810360008301526128ee816128b2565b9050919050565b7f496e73756666696369656e7420616c6c6f77616e636500000000000000000000600082015250565b600061292b6016836120a9565b9150612936826128f5565b602082019050919050565b6000602082019050818103600083015261295a8161291e565b9050919050565b600061296c8261215a565b91506129778361215a565b925082820190508082111561298f5761298e612630565b5b92915050565b7f45786365656473206d617820686f6c64696e6700000000000000000000000000600082015250565b60006129cb6013836120a9565b91506129d682612995565b602082019050919050565b600060208201905081810360008301526129fa816129be565b9050919050565b600082905092915050565b7f4e487b7100000000000000000000000000000000000000000000000000000000600052604160045260246000fd5b60008190508160005260206000209050919050565b60006020601f8301049050919050565b600082821b905092915050565b600060088302612a9d7fffffffffffffffffffffffffffffffffffffffffffffffffffffffffffffffff82612a60565b612aa78683612a60565b95508019841693508086168417925050509392505050565b6000819050919050565b6000612ae4612adf612ada8461215a565b612abf565b61215a565b9050919050565b6000819050919050565b612afe83612ac9565b612b12612b0a82612aeb565b848454612a6d565b825550505050565b600090565b612b27612b1a565b612b32818484612af5565b505050565b5b81811015612b5657612b4b600082612b1f565b600181019050612b38565b5050565b601f821115612b9b57612b6c81612a3b565b612b7584612a50565b81016020851015612b84578190505b612b98612b9085612a50565b830182612b37565b50505b505050565b600082821c905092915050565b6000612bbe60001984600802612ba0565b1980831691505092915050565b6000612bd78383612bad565b9150826002028217905092915050565b612bf18383612a01565b67ffffffffffffffff811115612c0a57612c09612a0c565b5b612c148254612593565b612c1f828285612b5a565b6000601f831160018114612c4e5760008415612c3c578287013590505b612c468582612bcb565b865550612cae565b601f198416612c5c86612a3b565b60005b82811015612c8457848901358255600182019150602085019450602081019050612c5f565b86831015612ca15784890135612c9d601f891682612bad565b8355505b6001600288020188555050505b50505050505050565b7f5072696365206e6f742073657400000000000000000000000000000000000000600082015250565b6000612ced600d836120a9565b9150612cf882612cb7565b602082019050919050565b60006020820190508181036000830152612d1c81612ce0565b9050919050565b6000612d2e8261215a565b9150612d398361215a565b9250828202612d478161215a565b91508282048414831517612d5e57612d5d612630565b5b5092915050565b7f4e487b7100000000000000000000000000000000000000000000000000000000600052601260045260246000fd5b6000612d9f8261215a565b9150612daa8361215a565b925082612dba57612db9612d65565b5b828204905092915050565b7f496e73756666696369656e74207061796d656e74000000000000000000000000600082015250565b6000612dfb6014836120a9565b9150612e0682612dc5565b602082019050919050565b60006020820190508181036000830152612e2a81612dee565b9050919050565b7f41646d696e2068617320696e73756666696369656e7420736861726573000000600082015250565b6000612e67601d836120a9565b9150612e7282612e31565b602082019050919050565b60006020820190508181036000830152612e9681612e5a565b9050919050565b6000604082019050612eb26000830185612291565b612ebf6020830184612291565b9392505050565b82818337600083830152505050565b6000612ee183856120a9565b9350612eee838584612ec6565b612ef7836120e4565b840190509392505050565b60006020820190508181036000830152612f1d818486612ed5565b90509392505050565b600081519050919050565b6000612f3c82612f26565b612f468185612693565b9350612f568185602086016120ba565b80840191505092915050565b6000612f6e8284612f31565b915081905092915050565b612f828161225b565b8114612f8d57600080fd5b50565b600081519050612f9f81612f79565b92915050565b600060208284031215612fbb57612fba612150565b5b6000612fc984828501612f90565b9150509291505056fea2646970667358221220d93be00baa3dc8698fb31198c24b4ba2516eee68005fb794d6ac0f29198e7ed464736f6c63430008140033",
  "linkReferences": {},
  "deployedLinkReferences": {}
}