{
  "_format": "hh-sol-artifact-1",
  "contractName": "MusicIPNFT",
  "sourceName": "contracts/MusicIPNFT.sol",
  "abi": [
    {
      "inputs": [],
      "stateMutability": "nonpayable",
      "type": "constructor"
    },
    {
      "inputs": [
        {
          "internalType": "address",
          "name": "sender",
          "type": "address"
        },
        {
          "internalType": "uint256",
          "name": "tokenId",
          "type": "uint256"
        },
        {
          "internalType": "address",
          "name": "owner",
          "type": "address"
        }
      ],
      "name": "ERC721IncorrectOwner",
      "type": "error"
    },
    {
      "inputs": [
        {
          "internalType": "address",
          "name": "operator",
          "type": "address"
        },
        {
          "internalType": "uint256",
          "name": "tokenId",
          "type": "uint256"
        }
      ],
      "name": "ERC721InsufficientApproval",
      "type": "error"
    },
    {
      "inputs": [
        {
          "internalType": "address",
          "name": "approver",
          "type": "address"
        }
      ],
      "name": "ERC721InvalidApprover",
      "type": "error"
    },
    {
      "inputs": [
        {
          "internalType": "address",
          "name": "operator",
          "type": "address"
        }
      ],
      "name": "ERC721InvalidOperator",
      "type": "error"
    },
    {
      "inputs": [
        {
          "internalType": "address",
          "name": "owner",
          "type": "address"
        }
      ],
      "name": "ERC721InvalidOwner",
      "type": "error"
    },
    {
      "inputs": [
        {
          "internalType": "address",
          "name": "receiver",
          "type": "address"
        }
      ],
      "name": "ERC721InvalidReceiver",
      "type": "error"
    },
    {
      "inputs": [
        {
          "internalType": "address",
          "name": "sender",
          "type": "address"
        }
      ],
      "name": "ERC721InvalidSender",
      "type": "error"
    },
    {
      "inputs": [
        {
          "internalType": "uint256",
          "name": "tokenId",
          "type": "uint256"
        }
      ],
      "name": "ERC721NonexistentToken",
      "type": "error"
    },
    {
      "inputs": [
        {
          "internalType": "address",
          "name": "owner",
          "type": "address"
        }
      ],
      "name": "OwnableInvalidOwner",
      "type": "error"
    },
    {
      "inputs": [
        {
          "internalType": "address",
          "name": "account",
          "type": "address"
        }
      ],
      "name": "OwnableUnauthorizedAccount",
      "type": "error"
    },
    {
      "anonymous": false,
      "inputs": [
        {
          "indexed": true,
          "internalType": "address",
          "name": "owner",
          "type": "address"
        },
        {
          "indexed": true,
          "internalType": "address",
          "name": "approved",
          "type": "address"
        },
        {
          "indexed": true,
          "internalType": "uint256",
          "name": "tokenId",
          "type": "uint256"
        }
      ],
      "name": "Approval",
      "type": "event"
    },
    {
      "anonymous": false,
      "inputs": [
        {
          "indexed": true,
          "internalType": "address",
          "name": "owner",
          "type": "address"
        },
        {
          "indexed": true,
          "internalType": "address",
          "name": "operator",
          "type": "address"
        },
        {
          "indexed": false,
          "internalType": "bool",
          "name": "approved",
          "type": "bool"
        }
      ],
      "name": "ApprovalForAll",
      "type": "event"
    },
    {
      "anonymous": false,
      "inputs": [
        {
          "indexed": true,
          "internalType": "uint256",
          "name": "tokenId",
          "type": "uint256"
        },
        {
          "indexed": true,
          "internalType": "address",
          "name": "creator",
          "type": "address"
        },
        {
          "indexed": false,
          "internalType": "address",
          "name": "royaltyContract",
          "type": "address"
        }
      ],
      "name": "MusicIPMinted",
      "type": "event"
    },
    {
      "anonymous": false,
      "inputs": [
        {
          "indexed": true,
          "internalType": "address",
          "name": "previousOwner",
          "type": "address"
        },
        {
          "indexed": true,
          "internalType": "address",
          "name": "newOwner",
          "type": "address"
        }
      ],
      "name": "OwnershipTransferred",
      "type": "event"
    },
    {
      "anonymous": false,
      "inputs": [
        {
          "indexed": true,
          "internalType": "uint256",
          "name": "requestId",
          "type": "uint256"
        },
        {
          "indexed": true,
          "internalType": "uint256",
          "name": "tokenId",
          "type": "uint256"
        }
      ],
      "name": "RequestApproved",
      "type": "event"
    },
    {
      "anonymous": false,
      "inputs": [
        {
          "indexed": true,
          "internalType": "uint256",
          "name": "requestId",
          "type": "uint256"
        },
        {
          "indexed": true,
          "internalType": "address",
          "name": "creator",
          "type": "address"
        }
      ],
      "name": "RequestSubmitted",
      "type": "event"
    },
    {
      "anonymous": false,
      "inputs": [
        {
          "indexed": true,
          "internalType": "address",
          "name": "from",
          "type": "address"
        },
        {
          "indexed": true,
          "internalType": "address",
          "name": "to",
          "type": "address"
        },
        {
          "indexed": true,
          "internalType": "uint256",
          "name": "tokenId",
          "type": "uint256"
        }
      ],
      "name": "Transfer",
      "type": "event"
    },
    {
      "inputs": [
        {
          "internalType": "address",
          "name": "to",
          "type": "address"
        },
        {
          "internalType": "uint256",
          "name": "tokenId",
          "type": "uint256"
        }
      ],
      "name": "approve",
      "outputs": [],
      "stateMutability": "nonpayable",
      "type": "function"
    },
    {
      "inputs": [
        {
          "internalType": "uint256",
          "name": "_requestId",
          "type": "uint256"
        }
      ],
      "name": "approveListing",
      "outputs": [],
      "stateMutability": "nonpayable",
      "type": "function"
    },
    {
      "inputs": [
        {
          "internalType": "address",
          "name": "owner",
          "type": "address"
        }
      ],
      "name": "balanceOf",
      "outputs": [
        {
          "internalType": "uint256",
          "name": "",
          "type": "uint256"
        }
      ],
      "stateMutability": "view",
      "type": "function"
    },
    {
      "inputs": [
        {
          "internalType": "uint256",
          "name": "tokenId",
          "type": "uint256"
        }
      ],
      "name": "getApproved",
      "outputs": [
        {
          "internalType": "address",
          "name": "",
          "type": "address"
        }
      ],
      "stateMutability": "view",
      "type": "function"
    },
    {
      "inputs": [
        {
          "internalType": "uint256",
          "name": "_tokenId",
          "type": "uint256"
        }
      ],
      "name": "getMusicIP",
      "outputs": [
        {
          "components": [
            {
              "internalType": "string",
              "name": "title",
              "type": "string"
            },
            {
              "internalType": "string",
              "name": "artist",
              "type": "string"
            },
            {
              "internalType": "string",
              "name": "metadataURI",
              "type": "string"
            },
            {
              "internalType": "address",
              "name": "creator",
              "type": "address"
            },
            {
              "internalType": "address",
              "name": "royaltyContract",
              "type": "address"
            },
            {
              "internalType": "bool",
              "name": "isActive",
              "type": "bool"
            }
          ],
          "internalType": "struct MusicIPNFT.MusicIP",
          "name": "",
          "type": "tuple"
        }
      ],
      "stateMutability": "view",
      "type": "function"
    },
    {
      "inputs": [],
      "name": "getPendingRequests",
      "outputs": [
        {
          "components": [
            {
              "internalType": "uint256",
              "name": "requestId",
              "type": "uint256"
            },
            {
              "internalType": "address",
              "name": "creator",
              "type": "address"
            },
            {
              "internalType": "string",
              "name": "title",
              "type": "string"
            },
            {
              "internalType": "string",
              "name": "artist",
              "type": "string"
            },
            {
              "internalType": "string",
              "name": "metadataURI",
              "type": "string"
            },
            {
              "internalType": "address",
              "name": "royaltyContract",
              "type": "address"
            },
            {
              "internalType": "bool",
              "name": "hasMinted",
              "type": "bool"
            }
          ],
          "internalType": "struct MusicIPNFT.Request[]",
          "name": "",
          "type": "tuple[]"
        }
      ],
      "stateMutability": "view",
      "type": "function"
    },
    {
      "inputs": [
        {
          "internalType": "address",
          "name": "owner",
          "type": "address"
        },
        {
          "internalType": "address",
          "name": "operator",
          "type": "address"
        }
      ],
      "name": "isApprovedForAll",
      "outputs": [
        {
          "internalType": "bool",
          "name": "",
          "type": "bool"
        }
      ],
      "stateMutability": "view",
      "type": "function"
    },
    {
      "inputs": [
        {
          "internalType": "address",
          "name": "_creator",
          "type": "address"
        },
        {
          "internalType": "string",
          "name": "_title",
          "type": "string"
        },
        {
          "internalType": "string",
          "name": "_artist",
          "type": "string"
        },
        {
          "internalType": "string",
          "name": "_metadataURI",
          "type": "string"
        },
        {
          "internalType": "address",
          "name": "_royaltyContract",
          "type": "address"
        }
      ],
      "name": "mintMusicIP",
      "outputs": [
        {
          "internalType": "uint256",
          "name": "",
          "type": "uint256"
        }
      ],
      "stateMutability": "nonpayable",
      "type": "function"
    },
    {
      "inputs": [
        {
          "internalType": "uint256",
          "name": "",
          "type": "uint256"
        }
      ],
      "name": "musicIPs",
      "outputs": [
        {
          "internalType": "string",
          "name": "title",
          "type": "string"
        },
        {
          "internalType": "string",
          "name": "artist",
          "type": "string"
        },
        {
          "internalType": "string",
          "name": "metadataURI",
          "type": "string"
        },
        {
          "internalType": "address",
          "name": "creator",
          "type": "address"
        },
        {
          "internalType": "address",
          "name": "royaltyContract",
          "type": "address"
        },
        {
          "internalType": "bool",
          "name": "isActive",
          "type": "bool"
        }
      ],
      "stateMutability": "view",
      "type": "function"
    },
    {
      "inputs": [],
      "name": "name",
      "outputs": [
        {
          "internalType": "string",
          "name": "",
          "type": "string"
        }
      ],
      "stateMutability": "view",
      "type": "function"
    },
    {
      "inputs": [],
      "name": "owner",
      "outputs": [
        {
          "internalType": "address",
          "name": "",
          "type": "address"
        }
      ],
      "stateMutability": "view",
      "type": "function"
    },
    {
      "inputs": [
        {
          "internalType": "uint256",
          "name": "tokenId",
          "type": "uint256"
        }
      ],
      "name": "ownerOf",
      "outputs": [
        {
          "internalType": "address",
          "name": "",
          "type": "address"
        }
      ],
      "stateMutability": "view",
      "type": "function"
    },
    {
      "inputs": [],
      "name": "renounceOwnership",
      "outputs": [],
      "stateMutability": "nonpayable",
      "type": "function"
    },
    {
      "inputs": [],
      "name": "requestCounter",
      "outputs": [
        {
          "internalType": "uint256",
          "name": "",
          "type": "uint256"
        }
      ],
      "stateMutability": "view",
      "type": "function"
    },
    {
      "inputs": [
        {
          "internalType": "string",
          "name": "_title",
          "type": "string"
        },
        {
          "internalType": "string",
          "name": "_artist",
          "type": "string"
        },
        {
          "internalType": "string",
          "name": "_metadataURI",
          "type": "string"
        },
        {
          "internalType": "address",
          "name": "_royaltyContract",
          "type": "address"
        }
      ],
      "name": "requestListing",
      "outputs": [],
      "stateMutability": "nonpayable",
      "type": "function"
    },
    {
      "inputs": [
        {
          "internalType": "uint256",
          "name": "",
          "type": "uint256"
        }
      ],
      "name": "requests",
      "outputs": [
        {
          "internalType": "uint256",
          "name": "requestId",
          "type": "uint256"
        },
        {
          "internalType": "address",
          "name": "creator",
          "type": "address"
        },
        {
          "internalType": "string",
          "name": "title",
          "type": "string"
        },
        {
          "internalType": "string",
          "name": "artist",
          "type": "string"
        },
        {
          "internalType": "string",
          "name": "metadataURI",
          "type": "string"
        },
        {
          "internalType": "address",
          "name": "royaltyContract",
          "type": "address"
        },
        {
          "internalType": "bool",
          "name": "hasMinted",
          "type": "bool"
        }
      ],
      "stateMutability": "view",
      "type": "function"
    },
    {
      "inputs": [
        {
          "internalType": "address",
          "name": "from",
          "type": "address"
        },
        {
          "internalType": "address",
          "name": "to",
          "type": "address"
        },
        {
          "internalType": "uint256",
          "name": "tokenId",
          "type": "uint256"
        }
      ],
      "name": "safeTransferFrom",
      "outputs": [],
      "stateMutability": "nonpayable",
      "type": "function"
    },
    {
      "inputs": [
        {
          "internalType": "address",
          "name": "from",
          "type": "address"
        },
        {
          "internalType": "address",
          "name": "to",
          "type": "address"
        },
        {
          "internalType": "uint256",
          "name": "tokenId",
          "type": "uint256"
        },
        {
          "internalType": "bytes",
          "name": "data",
          "type": "bytes"
        }
      ],
      "name": "safeTransferFrom",
      "outputs": [],
      "stateMutability": "nonpayable",
      "type": "function"
    },
    {
      "inputs": [
        {
          "internalType": "address",
          "name": "operator",
          "type": "address"
        },
        {
          "internalType": "bool",
          "name": "approved",
          "type": "bool"
        }
      ],
      "name": "setApprovalForAll",
      "outputs": [],
      "stateMutability": "nonpayable",
      "type": "function"
    },
    {
      "inputs": [
        {
          "internalType": "bytes4",
          "name": "interfaceId",
          "type": "bytes4"
        }
      ],
      "name": "supportsInterface",
      "outputs": [
        {
          "internalType": "bool",
          "name": "",
          "type": "bool"
        }
      ],
      "stateMutability": "view",
      "type": "function"
    },
    {
      "inputs": [],
      "name": "symbol",
      "outputs": [
        {
          "internalType": "string",
          "name": "",
          "type": "string"
        }
      ],
      "stateMutability": "view",
      "type": "function"
    },
    {
      "inputs": [],
      "name": "tokenCounter",
      "outputs": [
        {
          "internalType": "uint256",
          "name": "",
          "type": "uint256"
        }
      ],
      "stateMutability": "view",
      "type": "function"
    },
    {
      "inputs": [
        {
          "internalType": "uint256",
          "name": "tokenId",
          "type": "uint256"
        }
      ],
      "name": "tokenURI",
      "outputs": [
        {
          "internalType": "string",
          "name": "",
          "type": "string"
        }
      ],
      "stateMutability": "view",
      "type": "function"
    },
    {
      "inputs": [
        {
          "internalType": "address",
          "name": "from",
          "type": "address"
        },
        {
          "internalType": "address",
          "name": "to",
          "type": "address"
        },
        {
          "internalType": "uint256",
          "name": "tokenId",
          "type": "uint256"
        }
      ],
      "name": "transferFrom",
      "outputs": [],
      "stateMutability": "nonpayable",
      "type": "function"
    },
    {
      "inputs": [
        {
          "internalType": "address",
          "name": "newOwner",
          "type": "address"
        }
      ],
      "name": "transferOwnership",
      "outputs": [],
      "stateMutability": "nonpayable",
      "type": "function"
    }
  ],
  "bytecode": "0x60806040523480156200001157600080fd5b50336040518060400160405280600c81526020017f4d75736963204950204e465400000000000000000000000000000000000000008152506040518060400160405280600681526020017f4d49504e46540000000000000000000000000000000000000000000000000000815250816000908162000090919062000482565b508060019081620000a2919062000482565b505050600073ffffffffffffffffffffffffffffffffffffffff168173ffffffffffffffffffffffffffffffffffffffff16036200011a5760006040517f1e4fbdf7000000000000000000000000000000000000000000000000000000008152600401620001119190620005ae565b60405180910390fd5b6200012b816200014260201b60201c565b5060006007819055506000600a81905550620005cb565b6000600660009054906101000a900473ffffffffffffffffffffffffffffffffffffffff16905081600660006101000a81548173ffffffffffffffffffffffffffffffffffffffff021916908373ffffffffffffffffffffffffffffffffffffffff1602179055508173ffffffffffffffffffffffffffffffffffffffff168173ffffffffffffffffffffffffffffffffffffffff167f8be0079c531659141344cd1fd0a4f28419497f9722a3daafe3b4186f6b6457e060405160405180910390a35050565b600081519050919050565b7f4e487b7100000000000000000000000000000000000000000000000000000000600052604160045260246000fd5b7f4e487b7100000000000000000000000000000000000000000000000000000000600052602260045260246000fd5b600060028204905060018216806200028a57607f821691505b602082108103620002a0576200029f62000242565b5b50919050565b60008190508160005260206000209050919050565b60006020601f8301049050919050565b600082821b905092915050565b6000600883026200030a7fffffffffffffffffffffffffffffffffffffffffffffffffffffffffffffffff82620002cb565b620003168683620002cb565b95508019841693508086168417925050509392505050565b6000819050919050565b6000819050919050565b6000620003636200035d62000357846200032e565b62000338565b6200032e565b9050919050565b6000819050919050565b6200037f8362000342565b620003976200038e826200036a565b848454620002d8565b825550505050565b600090565b620003ae6200039f565b620003bb81848462000374565b505050565b5b81811015620003e357620003d7600082620003a4565b600181019050620003c1565b5050565b601f8211156200043257620003fc81620002a6565b6200040784620002bb565b8101602085101562000417578190505b6200042f6200042685620002bb565b830182620003c0565b50505b505050565b600082821c905092915050565b6000620004576000198460080262000437565b1980831691505092915050565b600062000472838362000444565b9150826002028217905092915050565b6200048d8262000208565b67ffffffffffffffff811115620004a957620004a862000213565b5b620004b5825462000271565b620004c2828285620003e7565b600060209050601f831160018114620004fa5760008415620004e5578287015190505b620004f1858262000464565b86555062000561565b601f1984166200050a86620002a6565b60005b8281101562000534578489015182556001820191506020850194506020810190506200050d565b8683101562000554578489015162000550601f89168262000444565b8355505b6001600288020188555050505b505050505050565b600073ffffffffffffffffffffffffffffffffffffffff82169050919050565b6000620005968262000569565b9050919050565b620005a88162000589565b82525050565b6000602082019050620005c560008301846200059d565b92915050565b61425c80620005db6000396000f3fe608060405234801561001057600080fd5b50600436106101735760003560e01c806380a1f712116100de578063b88d4fde11610097578063d082e38111610071578063d082e3811461047b578063e985e9c514610499578063f2fde38b146104c9578063f8aeae27146104e557610173565b8063b88d4fde14610413578063bfe2760a1461042f578063c87b56dd1461044b57610173565b806380a1f7121461034957806381d12c58146103675780638da5cb5b1461039d57806395d89b41146103bb578063973a814e146103d9578063a22cb465146103f757610173565b80633134834311610130578063313483431461025e57806337451e731461028e57806342842e0e146102c35780636352211e146102df57806370a082311461030f578063715018a61461033f57610173565b806301ffc9a71461017857806306fdde03146101a8578063081812fc146101c6578063095ea7b3146101f65780630b5fc13e1461021257806323b872dd14610242575b600080fd5b610192600480360381019061018d91906130ed565b610501565b60405161019f9190613135565b60405180910390f35b6101b06105e3565b6040516101bd91906131e0565b60405180910390f35b6101e060048036038101906101db9190613238565b610675565b6040516101ed91906132a6565b60405180910390f35b610210600480360381019061020b91906132ed565b610691565b005b61022c60048036038101906102279190613392565b6106a7565b604051610239919061347d565b60405180910390f35b61025c60048036038101906102579190613498565b610967565b005b61027860048036038101906102739190613238565b610a69565b60405161028591906135ea565b60405180910390f35b6102a860048036038101906102a39190613238565b610d13565b6040516102ba9695949392919061360c565b60405180910390f35b6102dd60048036038101906102d89190613498565b610f34565b005b6102f960048036038101906102f49190613238565b610f54565b60405161030691906132a6565b60405180910390f35b61032960048036038101906103249190613682565b610f66565b604051610336919061347d565b60405180910390f35b610347611020565b005b610351611034565b60405161035e919061382a565b60405180910390f35b610381600480360381019061037c9190613238565b611412565b604051610394979695949392919061384c565b60405180910390f35b6103a5611639565b6040516103b291906132a6565b60405180910390f35b6103c3611663565b6040516103d091906131e0565b60405180910390f35b6103e16116f5565b6040516103ee919061347d565b60405180910390f35b610411600480360381019061040c91906138fc565b6116fb565b005b61042d60048036038101906104289190613a6c565b611711565b005b61044960048036038101906104449190613238565b611736565b005b61046560048036038101906104609190613238565b611cb6565b60405161047291906131e0565b60405180910390f35b610483611d1f565b604051610490919061347d565b60405180910390f35b6104b360048036038101906104ae9190613aef565b611d25565b6040516104c09190613135565b60405180910390f35b6104e360048036038101906104de9190613682565b611db9565b005b6104ff60048036038101906104fa9190613b2f565b611e3f565b005b60007f80ac58cd000000000000000000000000000000000000000000000000000000007bffffffffffffffffffffffffffffffffffffffffffffffffffffffff1916827bffffffffffffffffffffffffffffffffffffffffffffffffffffffff191614806105cc57507f5b5e139f000000000000000000000000000000000000000000000000000000007bffffffffffffffffffffffffffffffffffffffffffffffffffffffff1916827bffffffffffffffffffffffffffffffffffffffffffffffffffffffff1916145b806105dc57506105db826120e8565b5b9050919050565b6060600080546105f290613c27565b80601f016020809104026020016040519081016040528092919081815260200182805461061e90613c27565b801561066b5780601f106106405761010080835404028352916020019161066b565b820191906000526020600020905b81548152906001019060200180831161064e57829003601f168201915b5050505050905090565b600061068082612152565b5061068a826121da565b9050919050565b6106a3828261069e612217565b61221f565b5050565b60006106b1612231565b600760008154809291906106c490613c87565b9190505550600060075490506106da8a826122b8565b6040518060c001604052808a8a8080601f016020809104026020016040519081016040528093929190818152602001838380828437600081840152601f19601f82011690508083019250505050505050815260200188888080601f016020809104026020016040519081016040528093929190818152602001838380828437600081840152601f19601f82011690508083019250505050505050815260200186868080601f016020809104026020016040519081016040528093929190818152602001838380828437600081840152601f19601f8201169050808301925050505050505081526020018b73ffffffffffffffffffffffffffffffffffffffff1681526020018473ffffffffffffffffffffffffffffffffffffffff1681526020016001151581525060086000838152602001908152602001600020600082015181600001908161082a9190613e7b565b5060208201518160010190816108409190613e7b565b5060408201518160020190816108569190613e7b565b5060608201518160030160006101000a81548173ffffffffffffffffffffffffffffffffffffffff021916908373ffffffffffffffffffffffffffffffffffffffff16021790555060808201518160040160006101000a81548173ffffffffffffffffffffffffffffffffffffffff021916908373ffffffffffffffffffffffffffffffffffffffff16021790555060a08201518160040160146101000a81548160ff0219169083151502179055509050508973ffffffffffffffffffffffffffffffffffffffff16817fb4b3f5fb301bbe5b649721b4781e4cf83e3c1a9e67d3bd4ac4ce1cf4a18406b38560405161094f91906132a6565b60405180910390a38091505098975050505050505050565b600073ffffffffffffffffffffffffffffffffffffffff168273ffffffffffffffffffffffffffffffffffffffff16036109d95760006040517f64a0ae920000000000000000000000000000000000000000000000000000000081526004016109d091906132a6565b60405180910390fd5b60006109ed83836109e8612217565b6122d6565b90508373ffffffffffffffffffffffffffffffffffffffff168173ffffffffffffffffffffffffffffffffffffffff1614610a63578382826040517f64283d7b000000000000000000000000000000000000000000000000000000008152600401610a5a93929190613f4d565b60405180910390fd5b50505050565b610a71612fb2565b600860008381526020019081526020016000206040518060c0016040529081600082018054610a9f90613c27565b80601f0160208091040260200160405190810160405280929190818152602001828054610acb90613c27565b8015610b185780601f10610aed57610100808354040283529160200191610b18565b820191906000526020600020905b815481529060010190602001808311610afb57829003601f168201915b50505050508152602001600182018054610b3190613c27565b80601f0160208091040260200160405190810160405280929190818152602001828054610b5d90613c27565b8015610baa5780601f10610b7f57610100808354040283529160200191610baa565b820191906000526020600020905b815481529060010190602001808311610b8d57829003601f168201915b50505050508152602001600282018054610bc390613c27565b80601f0160208091040260200160405190810160405280929190818152602001828054610bef90613c27565b8015610c3c5780601f10610c1157610100808354040283529160200191610c3c565b820191906000526020600020905b815481529060010190602001808311610c1f57829003601f168201915b505050505081526020016003820160009054906101000a900473ffffffffffffffffffffffffffffffffffffffff1673ffffffffffffffffffffffffffffffffffffffff1673ffffffffffffffffffffffffffffffffffffffff1681526020016004820160009054906101000a900473ffffffffffffffffffffffffffffffffffffffff1673ffffffffffffffffffffffffffffffffffffffff1673ffffffffffffffffffffffffffffffffffffffff1681526020016004820160149054906101000a900460ff1615151515815250509050919050565b6008602052806000526040600020600091509050806000018054610d3690613c27565b80601f0160208091040260200160405190810160405280929190818152602001828054610d6290613c27565b8015610daf5780601f10610d8457610100808354040283529160200191610daf565b820191906000526020600020905b815481529060010190602001808311610d9257829003601f168201915b505050505090806001018054610dc490613c27565b80601f0160208091040260200160405190810160405280929190818152602001828054610df090613c27565b8015610e3d5780601f10610e1257610100808354040283529160200191610e3d565b820191906000526020600020905b815481529060010190602001808311610e2057829003601f168201915b505050505090806002018054610e5290613c27565b80601f0160208091040260200160405190810160405280929190818152602001828054610e7e90613c27565b8015610ecb5780601f10610ea057610100808354040283529160200191610ecb565b820191906000526020600020905b815481529060010190602001808311610eae57829003601f168201915b5050505050908060030160009054906101000a900473ffffffffffffffffffffffffffffffffffffffff16908060040160009054906101000a900473ffffffffffffffffffffffffffffffffffffffff16908060040160149054906101000a900460ff16905086565b610f4f83838360405180602001604052806000815250611711565b505050565b6000610f5f82612152565b9050919050565b60008073ffffffffffffffffffffffffffffffffffffffff168273ffffffffffffffffffffffffffffffffffffffff1603610fd95760006040517f89c62b64000000000000000000000000000000000000000000000000000000008152600401610fd091906132a6565b60405180910390fd5b600360008373ffffffffffffffffffffffffffffffffffffffff1673ffffffffffffffffffffffffffffffffffffffff168152602001908152602001600020549050919050565b611028612231565b61103260006124f0565b565b6060600080600190505b600a548111611091576009600082815260200190815260200160002060050160149054906101000a900460ff1661107e57818061107a90613c87565b9250505b808061108990613c87565b91505061103e565b5060008167ffffffffffffffff8111156110ae576110ad613941565b5b6040519080825280602002602001820160405280156110e757816020015b6110d4613016565b8152602001906001900390816110cc5790505b509050600080600190505b600a548111611408576009600082815260200190815260200160002060050160149054906101000a900460ff166113f557600960008281526020019081526020016000206040518060e0016040529081600082015481526020016001820160009054906101000a900473ffffffffffffffffffffffffffffffffffffffff1673ffffffffffffffffffffffffffffffffffffffff1673ffffffffffffffffffffffffffffffffffffffff1681526020016002820180546111b190613c27565b80601f01602080910402602001604051908101604052809291908181526020018280546111dd90613c27565b801561122a5780601f106111ff5761010080835404028352916020019161122a565b820191906000526020600020905b81548152906001019060200180831161120d57829003601f168201915b5050505050815260200160038201805461124390613c27565b80601f016020809104026020016040519081016040528092919081815260200182805461126f90613c27565b80156112bc5780601f10611291576101008083540402835291602001916112bc565b820191906000526020600020905b81548152906001019060200180831161129f57829003601f168201915b505050505081526020016004820180546112d590613c27565b80601f016020809104026020016040519081016040528092919081815260200182805461130190613c27565b801561134e5780601f106113235761010080835404028352916020019161134e565b820191906000526020600020905b81548152906001019060200180831161133157829003601f168201915b505050505081526020016005820160009054906101000a900473ffffffffffffffffffffffffffffffffffffffff1673ffffffffffffffffffffffffffffffffffffffff1673ffffffffffffffffffffffffffffffffffffffff1681526020016005820160149054906101000a900460ff1615151515815250508383815181106113db576113da613f84565b5b602002602001018190525081806113f190613c87565b9250505b808061140090613c87565b9150506110f2565b5081935050505090565b60096020528060005260406000206000915090508060000154908060010160009054906101000a900473ffffffffffffffffffffffffffffffffffffffff169080600201805461146190613c27565b80601f016020809104026020016040519081016040528092919081815260200182805461148d90613c27565b80156114da5780601f106114af576101008083540402835291602001916114da565b820191906000526020600020905b8154815290600101906020018083116114bd57829003601f168201915b5050505050908060030180546114ef90613c27565b80601f016020809104026020016040519081016040528092919081815260200182805461151b90613c27565b80156115685780601f1061153d57610100808354040283529160200191611568565b820191906000526020600020905b81548152906001019060200180831161154b57829003601f168201915b50505050509080600401805461157d90613c27565b80601f01602080910402602001604051908101604052809291908181526020018280546115a990613c27565b80156115f65780601f106115cb576101008083540402835291602001916115f6565b820191906000526020600020905b8154815290600101906020018083116115d957829003601f168201915b5050505050908060050160009054906101000a900473ffffffffffffffffffffffffffffffffffffffff16908060050160149054906101000a900460ff16905087565b6000600660009054906101000a900473ffffffffffffffffffffffffffffffffffffffff16905090565b60606001805461167290613c27565b80601f016020809104026020016040519081016040528092919081815260200182805461169e90613c27565b80156116eb5780601f106116c0576101008083540402835291602001916116eb565b820191906000526020600020905b8154815290600101906020018083116116ce57829003601f168201915b5050505050905090565b600a5481565b61170d611706612217565b83836125b6565b5050565b61171c848484610967565b611730611727612217565b85858585612725565b50505050565b61173e612231565b60006009600083815260200190815260200160002090508060050160149054906101000a900460ff16156117a7576040517f08c379a000000000000000000000000000000000000000000000000000000000815260040161179e90613fff565b60405180910390fd5b600073ffffffffffffffffffffffffffffffffffffffff168160010160009054906101000a900473ffffffffffffffffffffffffffffffffffffffff1673ffffffffffffffffffffffffffffffffffffffff160361183a576040517f08c379a00000000000000000000000000000000000000000000000000000000081526004016118319061406b565b60405180910390fd5b600060076000815461184b90613c87565b91905081905590506118818260010160009054906101000a900473ffffffffffffffffffffffffffffffffffffffff16826122b8565b6040518060c0016040528083600201805461189b90613c27565b80601f01602080910402602001604051908101604052809291908181526020018280546118c790613c27565b80156119145780601f106118e957610100808354040283529160200191611914565b820191906000526020600020905b8154815290600101906020018083116118f757829003601f168201915b5050505050815260200183600301805461192d90613c27565b80601f016020809104026020016040519081016040528092919081815260200182805461195990613c27565b80156119a65780601f1061197b576101008083540402835291602001916119a6565b820191906000526020600020905b81548152906001019060200180831161198957829003601f168201915b505050505081526020018360040180546119bf90613c27565b80601f01602080910402602001604051908101604052809291908181526020018280546119eb90613c27565b8015611a385780601f10611a0d57610100808354040283529160200191611a38565b820191906000526020600020905b815481529060010190602001808311611a1b57829003601f168201915b505050505081526020018360010160009054906101000a900473ffffffffffffffffffffffffffffffffffffffff1673ffffffffffffffffffffffffffffffffffffffff1681526020018360050160009054906101000a900473ffffffffffffffffffffffffffffffffffffffff1673ffffffffffffffffffffffffffffffffffffffff16815260200160011515815250600860008381526020019081526020016000206000820151816000019081611af19190613e7b565b506020820151816001019081611b079190613e7b565b506040820151816002019081611b1d9190613e7b565b5060608201518160030160006101000a81548173ffffffffffffffffffffffffffffffffffffffff021916908373ffffffffffffffffffffffffffffffffffffffff16021790555060808201518160040160006101000a81548173ffffffffffffffffffffffffffffffffffffffff021916908373ffffffffffffffffffffffffffffffffffffffff16021790555060a08201518160040160146101000a81548160ff02191690831515021790555090505060018260050160146101000a81548160ff0219169083151502179055508160010160009054906101000a900473ffffffffffffffffffffffffffffffffffffffff1673ffffffffffffffffffffffffffffffffffffffff16817fb4b3f5fb301bbe5b649721b4781e4cf83e3c1a9e67d3bd4ac4ce1cf4a18406b38460050160009054906101000a900473ffffffffffffffffffffffffffffffffffffffff16604051611c7b91906132a6565b60405180910390a380837f99593786774c6f33049716fd956b1672f46813adf0f67f51f81345b36ba0b84760405160405180910390a3505050565b6060611cc182612152565b506000611ccc6128d6565b90506000815111611cec5760405180602001604052806000815250611d17565b80611cf6846128ed565b604051602001611d079291906140c7565b6040516020818303038152906040525b915050919050565b60075481565b6000600560008473ffffffffffffffffffffffffffffffffffffffff1673ffffffffffffffffffffffffffffffffffffffff16815260200190815260200160002060008373ffffffffffffffffffffffffffffffffffffffff1673ffffffffffffffffffffffffffffffffffffffff16815260200190815260200160002060009054906101000a900460ff16905092915050565b611dc1612231565b600073ffffffffffffffffffffffffffffffffffffffff168173ffffffffffffffffffffffffffffffffffffffff1603611e335760006040517f1e4fbdf7000000000000000000000000000000000000000000000000000000008152600401611e2a91906132a6565b60405180910390fd5b611e3c816124f0565b50565b600a6000815480929190611e5290613c87565b91905055506040518060e00160405280600a5481526020013373ffffffffffffffffffffffffffffffffffffffff16815260200188888080601f016020809104026020016040519081016040528093929190818152602001838380828437600081840152601f19601f82011690508083019250505050505050815260200186868080601f016020809104026020016040519081016040528093929190818152602001838380828437600081840152601f19601f82011690508083019250505050505050815260200184848080601f016020809104026020016040519081016040528093929190818152602001838380828437600081840152601f19601f8201169050808301925050505050505081526020018273ffffffffffffffffffffffffffffffffffffffff1681526020016000151581525060096000600a5481526020019081526020016000206000820151816000015560208201518160010160006101000a81548173ffffffffffffffffffffffffffffffffffffffff021916908373ffffffffffffffffffffffffffffffffffffffff16021790555060408201518160020190816120029190613e7b565b5060608201518160030190816120189190613e7b565b50608082015181600401908161202e9190613e7b565b5060a08201518160050160006101000a81548173ffffffffffffffffffffffffffffffffffffffff021916908373ffffffffffffffffffffffffffffffffffffffff16021790555060c08201518160050160146101000a81548160ff0219169083151502179055509050503373ffffffffffffffffffffffffffffffffffffffff16600a547f67da995c6df7166078290dae7ac4f9c90eeb269d051c434663949b26f04dba1d60405160405180910390a350505050505050565b60007f01ffc9a7000000000000000000000000000000000000000000000000000000007bffffffffffffffffffffffffffffffffffffffffffffffffffffffff1916827bffffffffffffffffffffffffffffffffffffffffffffffffffffffff1916149050919050565b60008061215e836129bb565b9050600073ffffffffffffffffffffffffffffffffffffffff168173ffffffffffffffffffffffffffffffffffffffff16036121d157826040517f7e2732890000000000000000000000000000000000000000000000000000000081526004016121c8919061347d565b60405180910390fd5b80915050919050565b60006004600083815260200190815260200160002060009054906101000a900473ffffffffffffffffffffffffffffffffffffffff169050919050565b600033905090565b61222c83838360016129f8565b505050565b612239612217565b73ffffffffffffffffffffffffffffffffffffffff16612257611639565b73ffffffffffffffffffffffffffffffffffffffff16146122b65761227a612217565b6040517f118cdaa70000000000000000000000000000000000000000000000000000000081526004016122ad91906132a6565b60405180910390fd5b565b6122d2828260405180602001604052806000815250612bbd565b5050565b6000806122e2846129bb565b9050600073ffffffffffffffffffffffffffffffffffffffff168373ffffffffffffffffffffffffffffffffffffffff161461232457612323818486612be1565b5b600073ffffffffffffffffffffffffffffffffffffffff168173ffffffffffffffffffffffffffffffffffffffff16146123b5576123666000856000806129f8565b6001600360008373ffffffffffffffffffffffffffffffffffffffff1673ffffffffffffffffffffffffffffffffffffffff168152602001908152602001600020600082825403925050819055505b600073ffffffffffffffffffffffffffffffffffffffff168573ffffffffffffffffffffffffffffffffffffffff1614612438576001600360008773ffffffffffffffffffffffffffffffffffffffff1673ffffffffffffffffffffffffffffffffffffffff168152602001908152602001600020600082825401925050819055505b846002600086815260200190815260200160002060006101000a81548173ffffffffffffffffffffffffffffffffffffffff021916908373ffffffffffffffffffffffffffffffffffffffff160217905550838573ffffffffffffffffffffffffffffffffffffffff168273ffffffffffffffffffffffffffffffffffffffff167fddf252ad1be2c89b69c2b068fc378daa952ba7f163c4a11628f55a4df523b3ef60405160405180910390a4809150509392505050565b6000600660009054906101000a900473ffffffffffffffffffffffffffffffffffffffff16905081600660006101000a81548173ffffffffffffffffffffffffffffffffffffffff021916908373ffffffffffffffffffffffffffffffffffffffff1602179055508173ffffffffffffffffffffffffffffffffffffffff168173ffffffffffffffffffffffffffffffffffffffff167f8be0079c531659141344cd1fd0a4f28419497f9722a3daafe3b4186f6b6457e060405160405180910390a35050565b600073ffffffffffffffffffffffffffffffffffffffff168273ffffffffffffffffffffffffffffffffffffffff160361262757816040517f5b08ba1800000000000000000000000000000000000000000000000000000000815260040161261e91906132a6565b60405180910390fd5b80600560008573ffffffffffffffffffffffffffffffffffffffff1673ffffffffffffffffffffffffffffffffffffffff16815260200190815260200160002060008473ffffffffffffffffffffffffffffffffffffffff1673ffffffffffffffffffffffffffffffffffffffff16815260200190815260200160002060006101000a81548160ff0219169083151502179055508173ffffffffffffffffffffffffffffffffffffffff168373ffffffffffffffffffffffffffffffffffffffff167f17307eab39ab6107e8899845ad3d59bd9653f200f220920489ca2b5937696c31836040516127189190613135565b60405180910390a3505050565b60008373ffffffffffffffffffffffffffffffffffffffff163b11156128cf578273ffffffffffffffffffffffffffffffffffffffff1663150b7a02868685856040518563ffffffff1660e01b81526004016127849493929190614140565b6020604051808303816000875af19250505080156127c057506040513d601f19601f820116820180604052508101906127bd91906141a1565b60015b612844573d80600081146127f0576040519150601f19603f3d011682016040523d82523d6000602084013e6127f5565b606091505b50600081510361283c57836040517f64a0ae9200000000000000000000000000000000000000000000000000000000815260040161283391906132a6565b60405180910390fd5b805160208201fd5b63150b7a0260e01b7bffffffffffffffffffffffffffffffffffffffffffffffffffffffff1916817bffffffffffffffffffffffffffffffffffffffffffffffffffffffff1916146128cd57836040517f64a0ae920000000000000000000000000000000000000000000000000000000081526004016128c491906132a6565b60405180910390fd5b505b5050505050565b606060405180602001604052806000815250905090565b6060600060016128fc84612ca5565b01905060008167ffffffffffffffff81111561291b5761291a613941565b5b6040519080825280601f01601f19166020018201604052801561294d5781602001600182028036833780820191505090505b509050600082602083010190505b6001156129b0578080600190039150507f3031323334353637383961626364656600000000000000000000000000000000600a86061a8153600a85816129a4576129a36141ce565b5b0494506000850361295b575b819350505050919050565b60006002600083815260200190815260200160002060009054906101000a900473ffffffffffffffffffffffffffffffffffffffff169050919050565b8080612a315750600073ffffffffffffffffffffffffffffffffffffffff168273ffffffffffffffffffffffffffffffffffffffff1614155b15612b65576000612a4184612152565b9050600073ffffffffffffffffffffffffffffffffffffffff168373ffffffffffffffffffffffffffffffffffffffff1614158015612aac57508273ffffffffffffffffffffffffffffffffffffffff168173ffffffffffffffffffffffffffffffffffffffff1614155b8015612abf5750612abd8184611d25565b155b15612b0157826040517fa9fbf51f000000000000000000000000000000000000000000000000000000008152600401612af891906132a6565b60405180910390fd5b8115612b6357838573ffffffffffffffffffffffffffffffffffffffff168273ffffffffffffffffffffffffffffffffffffffff167f8c5be1e5ebec7d5bd14f71427d1e84f3dd0314c0f7b2291e5b200ac8c7c3b92560405160405180910390a45b505b836004600085815260200190815260200160002060006101000a81548173ffffffffffffffffffffffffffffffffffffffff021916908373ffffffffffffffffffffffffffffffffffffffff16021790555050505050565b612bc78383612df8565b612bdc612bd2612217565b6000858585612725565b505050565b612bec838383612ef1565b612ca057600073ffffffffffffffffffffffffffffffffffffffff168373ffffffffffffffffffffffffffffffffffffffff1603612c6157806040517f7e273289000000000000000000000000000000000000000000000000000000008152600401612c58919061347d565b60405180910390fd5b81816040517f177e802f000000000000000000000000000000000000000000000000000000008152600401612c979291906141fd565b60405180910390fd5b505050565b600080600090507a184f03e93ff9f4daa797ed6e38ed64bf6a1f0100000000000000008310612d03577a184f03e93ff9f4daa797ed6e38ed64bf6a1f0100000000000000008381612cf957612cf86141ce565b5b0492506040810190505b6d04ee2d6d415b85acef81000000008310612d40576d04ee2d6d415b85acef81000000008381612d3657612d356141ce565b5b0492506020810190505b662386f26fc100008310612d6f57662386f26fc100008381612d6557612d646141ce565b5b0492506010810190505b6305f5e1008310612d98576305f5e1008381612d8e57612d8d6141ce565b5b0492506008810190505b6127108310612dbd576127108381612db357612db26141ce565b5b0492506004810190505b60648310612de05760648381612dd657612dd56141ce565b5b0492506002810190505b600a8310612def576001810190505b80915050919050565b600073ffffffffffffffffffffffffffffffffffffffff168273ffffffffffffffffffffffffffffffffffffffff1603612e6a5760006040517f64a0ae92000000000000000000000000000000000000000000000000000000008152600401612e6191906132a6565b60405180910390fd5b6000612e78838360006122d6565b9050600073ffffffffffffffffffffffffffffffffffffffff168173ffffffffffffffffffffffffffffffffffffffff1614612eec5760006040517f73c6ac6e000000000000000000000000000000000000000000000000000000008152600401612ee391906132a6565b60405180910390fd5b505050565b60008073ffffffffffffffffffffffffffffffffffffffff168373ffffffffffffffffffffffffffffffffffffffff1614158015612fa957508273ffffffffffffffffffffffffffffffffffffffff168473ffffffffffffffffffffffffffffffffffffffff161480612f6a5750612f698484611d25565b5b80612fa857508273ffffffffffffffffffffffffffffffffffffffff16612f90836121da565b73ffffffffffffffffffffffffffffffffffffffff16145b5b90509392505050565b6040518060c00160405280606081526020016060815260200160608152602001600073ffffffffffffffffffffffffffffffffffffffff168152602001600073ffffffffffffffffffffffffffffffffffffffff1681526020016000151581525090565b6040518060e0016040528060008152602001600073ffffffffffffffffffffffffffffffffffffffff168152602001606081526020016060815260200160608152602001600073ffffffffffffffffffffffffffffffffffffffff1681526020016000151581525090565b6000604051905090565b600080fd5b600080fd5b60007fffffffff0000000000000000000000000000000000000000000000000000000082169050919050565b6130ca81613095565b81146130d557600080fd5b50565b6000813590506130e7816130c1565b92915050565b6000602082840312156131035761310261308b565b5b6000613111848285016130d8565b91505092915050565b60008115159050919050565b61312f8161311a565b82525050565b600060208201905061314a6000830184613126565b92915050565b600081519050919050565b600082825260208201905092915050565b60005b8381101561318a57808201518184015260208101905061316f565b60008484015250505050565b6000601f19601f8301169050919050565b60006131b282613150565b6131bc818561315b565b93506131cc81856020860161316c565b6131d581613196565b840191505092915050565b600060208201905081810360008301526131fa81846131a7565b905092915050565b6000819050919050565b61321581613202565b811461322057600080fd5b50565b6000813590506132328161320c565b92915050565b60006020828403121561324e5761324d61308b565b5b600061325c84828501613223565b91505092915050565b600073ffffffffffffffffffffffffffffffffffffffff82169050919050565b600061329082613265565b9050919050565b6132a081613285565b82525050565b60006020820190506132bb6000830184613297565b92915050565b6132ca81613285565b81146132d557600080fd5b50565b6000813590506132e7816132c1565b92915050565b600080604083850312156133045761330361308b565b5b6000613312858286016132d8565b925050602061332385828601613223565b9150509250929050565b600080fd5b600080fd5b600080fd5b60008083601f8401126133525761335161332d565b5b8235905067ffffffffffffffff81111561336f5761336e613332565b5b60208301915083600182028301111561338b5761338a613337565b5b9250929050565b60008060008060008060008060a0898b0312156133b2576133b161308b565b5b60006133c08b828c016132d8565b985050602089013567ffffffffffffffff8111156133e1576133e0613090565b5b6133ed8b828c0161333c565b9750975050604089013567ffffffffffffffff8111156134105761340f613090565b5b61341c8b828c0161333c565b9550955050606089013567ffffffffffffffff81111561343f5761343e613090565b5b61344b8b828c0161333c565b9350935050608061345e8b828c016132d8565b9150509295985092959890939650565b61347781613202565b82525050565b6000602082019050613492600083018461346e565b92915050565b6000806000606084860312156134b1576134b061308b565b5b60006134bf868287016132d8565b93505060206134d0868287016132d8565b92505060406134e186828701613223565b9150509250925092565b600082825260208201905092915050565b600061350782613150565b61351181856134eb565b935061352181856020860161316c565b61352a81613196565b840191505092915050565b61353e81613285565b82525050565b61354d8161311a565b82525050565b600060c083016000830151848203600086015261357082826134fc565b9150506020830151848203602086015261358a82826134fc565b915050604083015184820360408601526135a482826134fc565b91505060608301516135b96060860182613535565b5060808301516135cc6080860182613535565b5060a08301516135df60a0860182613544565b508091505092915050565b600060208201905081810360008301526136048184613553565b905092915050565b600060c082019050818103600083015261362681896131a7565b9050818103602083015261363a81886131a7565b9050818103604083015261364e81876131a7565b905061365d6060830186613297565b61366a6080830185613297565b61367760a0830184613126565b979650505050505050565b6000602082840312156136985761369761308b565b5b60006136a6848285016132d8565b91505092915050565b600081519050919050565b600082825260208201905092915050565b6000819050602082019050919050565b6136e481613202565b82525050565b600060e08301600083015161370260008601826136db565b5060208301516137156020860182613535565b506040830151848203604086015261372d82826134fc565b9150506060830151848203606086015261374782826134fc565b9150506080830151848203608086015261376182826134fc565b91505060a083015161377660a0860182613535565b5060c083015161378960c0860182613544565b508091505092915050565b60006137a083836136ea565b905092915050565b6000602082019050919050565b60006137c0826136af565b6137ca81856136ba565b9350836020820285016137dc856136cb565b8060005b8581101561381857848403895281516137f98582613794565b9450613804836137a8565b925060208a019950506001810190506137e0565b50829750879550505050505092915050565b6000602082019050818103600083015261384481846137b5565b905092915050565b600060e082019050613861600083018a61346e565b61386e6020830189613297565b818103604083015261388081886131a7565b9050818103606083015261389481876131a7565b905081810360808301526138a881866131a7565b90506138b760a0830185613297565b6138c460c0830184613126565b98975050505050505050565b6138d98161311a565b81146138e457600080fd5b50565b6000813590506138f6816138d0565b92915050565b600080604083850312156139135761391261308b565b5b6000613921858286016132d8565b9250506020613932858286016138e7565b9150509250929050565b600080fd5b7f4e487b7100000000000000000000000000000000000000000000000000000000600052604160045260246000fd5b61397982613196565b810181811067ffffffffffffffff8211171561399857613997613941565b5b80604052505050565b60006139ab613081565b90506139b78282613970565b919050565b600067ffffffffffffffff8211156139d7576139d6613941565b5b6139e082613196565b9050602081019050919050565b82818337600083830152505050565b6000613a0f613a0a846139bc565b6139a1565b905082815260208101848484011115613a2b57613a2a61393c565b5b613a368482856139ed565b509392505050565b600082601f830112613a5357613a5261332d565b5b8135613a638482602086016139fc565b91505092915050565b60008060008060808587031215613a8657613a8561308b565b5b6000613a94878288016132d8565b9450506020613aa5878288016132d8565b9350506040613ab687828801613223565b925050606085013567ffffffffffffffff811115613ad757613ad6613090565b5b613ae387828801613a3e565b91505092959194509250565b60008060408385031215613b0657613b0561308b565b5b6000613b14858286016132d8565b9250506020613b25858286016132d8565b9150509250929050565b60008060008060008060006080888a031215613b4e57613b4d61308b565b5b600088013567ffffffffffffffff811115613b6c57613b6b613090565b5b613b788a828b0161333c565b9750975050602088013567ffffffffffffffff811115613b9b57613b9a613090565b5b613ba78a828b0161333c565b9550955050604088013567ffffffffffffffff811115613bca57613bc9613090565b5b613bd68a828b0161333c565b93509350506060613be98a828b016132d8565b91505092959891949750929550565b7f4e487b7100000000000000000000000000000000000000000000000000000000600052602260045260246000fd5b60006002820490506001821680613c3f57607f821691505b602082108103613c5257613c51613bf8565b5b50919050565b7f4e487b7100000000000000000000000000000000000000000000000000000000600052601160045260246000fd5b6000613c9282613202565b91507fffffffffffffffffffffffffffffffffffffffffffffffffffffffffffffffff8203613cc457613cc3613c58565b5b600182019050919050565b60008190508160005260206000209050919050565b60006020601f8301049050919050565b600082821b905092915050565b600060088302613d317fffffffffffffffffffffffffffffffffffffffffffffffffffffffffffffffff82613cf4565b613d3b8683613cf4565b95508019841693508086168417925050509392505050565b6000819050919050565b6000613d78613d73613d6e84613202565b613d53565b613202565b9050919050565b6000819050919050565b613d9283613d5d565b613da6613d9e82613d7f565b848454613d01565b825550505050565b600090565b613dbb613dae565b613dc6818484613d89565b505050565b5b81811015613dea57613ddf600082613db3565b600181019050613dcc565b5050565b601f821115613e2f57613e0081613ccf565b613e0984613ce4565b81016020851015613e18578190505b613e2c613e2485613ce4565b830182613dcb565b50505b505050565b600082821c905092915050565b6000613e5260001984600802613e34565b1980831691505092915050565b6000613e6b8383613e41565b9150826002028217905092915050565b613e8482613150565b67ffffffffffffffff811115613e9d57613e9c613941565b5b613ea78254613c27565b613eb2828285613dee565b600060209050601f831160018114613ee55760008415613ed3578287015190505b613edd8582613e5f565b865550613f45565b601f198416613ef386613ccf565b60005b82811015613f1b57848901518255600182019150602085019450602081019050613ef6565b86831015613f385784890151613f34601f891682613e41565b8355505b6001600288020188555050505b505050505050565b6000606082019050613f626000830186613297565b613f6f602083018561346e565b613f7c6040830184613297565b949350505050565b7f4e487b7100000000000000000000000000000000000000000000000000000000600052603260045260246000fd5b7f416c7265616479206d696e746564000000000000000000000000000000000000600082015250565b6000613fe9600e8361315b565b9150613ff482613fb3565b602082019050919050565b6000602082019050818103600083015261401881613fdc565b9050919050565b7f496e76616c696420726571756573740000000000000000000000000000000000600082015250565b6000614055600f8361315b565b91506140608261401f565b602082019050919050565b6000602082019050818103600083015261408481614048565b9050919050565b600081905092915050565b60006140a182613150565b6140ab818561408b565b93506140bb81856020860161316c565b80840191505092915050565b60006140d38285614096565b91506140df8284614096565b91508190509392505050565b600081519050919050565b600082825260208201905092915050565b6000614112826140eb565b61411c81856140f6565b935061412c81856020860161316c565b61413581613196565b840191505092915050565b60006080820190506141556000830187613297565b6141626020830186613297565b61416f604083018561346e565b81810360608301526141818184614107565b905095945050505050565b60008151905061419b816130c1565b92915050565b6000602082840312156141b7576141b661308b565b5b60006141c58482850161418c565b91505092915050565b7f4e487b7100000000000000000000000000000000000000000000000000000000600052601260045260246000fd5b60006040820190506142126000830185613297565b61421f602083018461346e565b939250505056fea26469706673582212203e186655c79abeaaeb98d114da1821aec9203988d7eca6240448fd4eaa96841364736f6c63430008140033",
  "linkReferences": {},
  "deployedLinkReferences": {}
}